:10002600467269656400557000446F776E00506FC4
:10003600776572004C696768740044656F696C0087
:1000460000000000000000000000000000000000AA
:10005600000000000000000000000000000000009A
:10006600000000000000000000000000000000008A
:100076000000780000000001FE00000000060300FA
:100086000000000C0180000000080080000000183D
:1000960000C00000001800400000001000400000F2
:1000A600001E00600800000FC0601E0000006060B7
:1000B6003300000033E0610000001E71C0800000C4
:1000C600181F00800000181C008000001008008027
:1000D6000000300800800000F818018000018C1034
:1000E600010000030E700300000603FC0600000476
:1000F600030FFC0000040201E000000C02000000F7
:10010600000C02000000000C0200000000040200C7
:1001160000000004030000000006010000000003C8
:100126000180000000018380000000007E000000C6
:1001360000001800000000000000000000000000A1
:1001460000000000000000000000000000000000A9
:100156000000000000000000000000000000000099
:100166000000180000000018000000001800000041
:100176002018060000301804000010000C000018BB
:10018600000800000000000000000000000000FF62
:1001960000000C03C3C03007060C6060010C0F3072
:1001A60000001801D80000100048000030006C0064
:1001B600002000340000200034000020003400003D
:1001C6002000140000200004000030000C00001085
:1001D60000080000100008000008001000000C00D5
:1001E600300000060060000002004000000300C06E
:1001F60000000300C000000300C0000001FFC000B3
:100206000000FF00000000FF0000000300C0000027
:1002160001FF800000000000000000FF0000000059
:100226008100000000FF0000000180000001800046
:100236000003800000038000040380000E0380702A
:100246001C0380783C03803C3803801C7003800EBE
:100256007003800EE0038006E0038007E00380075A
:10026600E0038007E0038007E0018007E000000765
:10027600E0000007E0000007E00000067000000E46
:100286007000000E3800001C3800003C1C000038CE
:100296000E0000F0078001E003E007C001FFFF80C9
:1002A600007FFE00001FF8000004002000000C0084
:1002B6003000000C003000000C003000000400305C
:1002C6000000000030000000003000000400300094
:1002D600000C003000000C003000000C0030000064
:1002E6000FFFF000000800100000100008000020BA
:1002F600000400004000020000C00003000180006E
:10030600018001000000800200000040040000009F
:10031600200FFFFFF9F01BFFFFF1D8300000000CA3
:100326007F3FFFFFFEFF3FFFFFFF800000000180D1
:10033600000000018000000001FFFFFFFFFF00003A
:10034600000000000018000000003C00000E1C1811
:1003560038700618181860040818102004081810B9
:1003660020040800102008100008100810000810CB
:100376000000000000000000000000000000000077
:100386000000000000000000000000000000000067
:100396000000000000000000000000000000021045
:1003A6000000006210000000C630000000CC6000B3
:1003B60000018C400000008C60000000C670000048
:1003C600006230000000623000000046300000008D
:1003D600CE600000018C6000000088400000000034
:1003E6000000000000000000FFFFFFFFFEFFFFFF10
:1003F600FFFFC0000020006000006000600000C039
:10040600003FFFFF80001FFFFF000000000000000C
:1004160000000000000000000000000000000000D6
:1004260000000000000000000000000000000000C6
:1004360000000000000000000000000000000000B6
:1004460000000000000000000000000000003F80E7
:100456000000007FC0000000C030000000801800CF
:100466000000800C00000080040000E0803C0001D9
:10047600A080E0000320818000023081000004108B
:10048600C300000C18C200000C0E66FFC00C03FF70
:10049600C0600C00E700300C004200300C00420047
:1004A600300C00E700300603FFC03003FF667030F3
:1004B60000004318200000C308200000810C400003
:1004C600018104C00007010580003C0107000020EF
:1004D60001000000300100000018010000000C03BC
:1004E60000000003FE00000001FC00000000000008
:1004F60000000000000000000000000000000000F6
:100506003FFFFFFFFFFFFFFFFC7FFFFFFFFFFFFF38
:10051600FFFEFFFFFFFFFFFFFFFFFFE00000000001
:1005260000000007E00000000000000007E00000F7
:10053600000000000007E00000000000000007E0E7
:100546000000000000000007E000000000000000BE
:1005560007E00000000000000007E00000000000C7
:10056600000007E00000000000000007E0000000B7
:100576000000000007E00000000000000007E000A7
:1005860000000000000007E0000000000000000777
:10059600E00000000000000007E00000000000008E
:1005A6000007E00000000000000007E00000000077
:1005B60000000007E00000000000000007E0000067
:1005C600000000000007E00000000000000007E057
:1005D6000000000000000007E0000000000000002E
:1005E60007E00000000000000007E0000000000037
:1005F600000007E00000000000000007E000000027
:100606000000000007E00000000000000007E00016
:1006160000000000000007E00000000000000007E6
:10062600E00000000000000007E0000000000000FD
:100636000007E00000000000000007E000000000E6
:1006460000000007E00000000000000007E00000D6
:10065600000000000007E00000000000000007E0C6
:100666000000000000000007E0000000000000009D
:1006760007E00000000000000007E00000000000A6
:10068600000007E00000000000000007E000000096
:100696000000000007E00000000000000007E00086
:1006A60000000000000007E0000000000000000756
:1006B600E00000000000000007E00000000000006D
:1006C6000007E00000000000000007E00000000056
:1006D60000000007E00000000000000007E0000046
:1006E600000000000007E00000000000000007E036
:1006F6000000000000000007E0000000000000000D
:1007060007E00000000000000007E0000000000015
:10071600000007E00000000000000007E000000005
:100726000000000007E00000000000000007E000F5
:1007360000000000000007E00000000000000007C5
:10074600E00000000000000007E0000000000000DC
:100756000007E00000000000000007E000000000C5
:1007660000000007E00000000000000007E00000B5
:10077600000000000007E00000000000000007E0A5
:100786000000000000000007E0000000000000007C
:1007960007E00000000000000007E0000000000085
:1007A600000007E00000000000000007E000000075
:1007B6000000000007E00000000000000007E00065
:1007C60000000000000007E0000000000000000735
:1007D600E00000000000000007E00000000000004C
:1007E6000007E00000000000000007E00000000035
:1007F60000000007E00000000000000007E0000025
:10080600000000000007E00000000000000007E014
:100816000000000000000007E000000000000000EB
:1008260007E00000000000000007E00000000000F4
:10083600000007E00000000000000007E0000000E4
:100846000000000007E00000000000000007E000D4
:1008560000000000000007E00000000000000007A4
:10086600E00000000000000007E0000000000000BB
:100876000007E00000000000000007E000000000A4
:1008860000000007E00000000000000007E0000094
:10089600000000000007E00000000000000007E084
:1008A6000000000000000007E0000000000000005B
:1008B60007E00000000000000007E0000000000064
:1008C600000007FFFFFFFFFFFFFFFFFF7FFFFFFFA8
:1008D600FFFFFFFFFE3FFFFFFFFFFFFFFFFC2E0FA7
:1008E60013030800000000000000000000000000E4
:1008F60000000000000000000000000000000000F2
:1009060000000000000000000000000000000000E1
:1009160002000000FE47000000000000000000008A
:1009260000000000000000000000000000000000C1
:1009360000000000000000000000000000000400AD
:1009460000003E00000000003E0000000000000025
:100956000000000000000000000000000000000091
:100966000000000000000000000000000820040055
:10097600207400F00F002E0400207400F00F002EEB
:100986000400200400000000000000000000000039
:1009960000000000000000000000080000007818B9
:1009A60000C62000824000FFFF010241000623002E
:1009B6000C1E000000000000000000000000000007
:1009C60000000000000000000B0000007C00008218
:1009D60000008240007C3800000700E00000183E5E
:1009E60000064100004100003E000000000000003B
:1009F6000000000000000B000000001F00BC2100EA
:100A0600C64000C241004242006664003C3C000011
:100A16002E000063000040000000000000000000FF
:100A260000000000020000003E0000000000000080
:100A360000000000000000000000000000000000B0
:100A460000000000000000000000000000000000A0
:100A5600000005000000000000E07F001CC003024B
:100A6600000400000000000000000000000000007C
:100A76000000000000000000000000000000000070
:100A8600030200041CC003E07F0000000000000019
:100A96000000000000000000000000000000000050
:100AA6000000000000000000000000000000050437
:100AB60000003400000E00003400000400000000B6
:100AC6000000000000000000000000000000000020
:100AD6000000000000000000000000000A00000006
:100AE600000200000200000200000200C01F000019
:100AF60002000002000002000002000000000000E8
:100B0600000000000000000000000200000200C01B
:100B160001000000000000000000000000000000CE
:100B260000000000000000000000000000000000BF
:100B360000000000000000000400040000040000A3
:100B46000400000400000000000000000000000097
:100B5600000000000000000000000000000000008F
:100B6600000000000000020000000040000000003D
:100B7600000000000000000000000000000000006F
:100B8600000000000000000000000000000000005F
:100B96000000000004004000003E00E001001E00CE
:100BA600000000000000000000000000000000003F
:100BB600000000000000000000000000000000002F
:100BC600000008F80F000630000360000140000135
:100BD6004000036000063000F80F0000000000002F
:100BE60000000000000000000000000000000000FF
:100BF60005000000100000080000040000FF7F0050
:100C060000000000000000000000000000000000DE
:100C16000000000000000000000000000000080CBA
:100C26006000025000014800014400014200814179
:100C360000C240003C400000000000000000000030
:100C4600000000000000000000000000080418007A
:100C5600022000014000814000814000814000C226
:100C660021003C1F00000000000000000000000002
:100C760000000000000000000000080006008005DB
:100C8600004004003004000C0400FF7F0000040054
:100C9600000400000000000000000000000000004A
:100CA600000000000000000008F018006F2000217E
:100CB6004000214000214000616000C13000810FEA
:100CC600000000000000000000000000000000001E
:100CD60000000000000008F80F00863000426000A7
:100CE600414000414000414000822000041F0000B6
:100CF60000000000000000000000000000000000EE
:100D06000000000008010000010000017800010752
:100D160000E100003900000D0000030000000000A3
:100D260000000000000000000000000000000000BD
:100D36000000083C1F00C221008140008140008164
:100D46004000814000C221007C1F0000000000001E
:100D5600000000000000000000000000000000008D
:100D6600087C10008620000341000141000141007B
:100D7600012100863800F80700000000000000008E
:100D8600000000000000000000000000000002005B
:100D960000002040000000000000000000000000ED
:100DA600000000000000000000000000000000003D
:100DB6000000000000000000000000000200000229
:100DC60020C001000000000000000000000000003C
:100DD600000000000000000000000000000000000D
:100DE60000000000000000000000080000000001F4
:100DF6000080020080020040040020080020080055
:100E060010100000000000000000000000000000BC
:100E16000000000000000000080000004004004040
:100E26000400400400400400400400400400400464
:100E360000000000000000000000000000000000AC
:100E4600000000000000080000001010002008004C
:100E5600200800400400800200800200000100001B
:100E6600000000000000000000000000000000007C
:100E76000000000007180000040000020000025CE9
:100E8600000203008401007800000000000000005A
:100E9600000000000000000000000000000000004C
:100EA60000000F000000803F0060C0001800010C29
:100EB6001F02C46002624004224004222004423819
:100EC60004E247040440020C2002381801E08700BF
:100ED6000B004000003800000700E002001C020082
:100EE6000202001C0200E0020000070000380000B9
:100EF60040000000000000000000000000000900A3
:100F06000000FE7F00824000824000824000824056
:100F160000824000C42100781F000000000000008D
:100F26000000000000000000000000000A000000B1
:100F3600E0070018180004200002400002400002EA
:100F46004000024000042000181C000000000000C1
:100F5600000000000000000000000A000000FE7F04
:100F66000002400002400002400002400002400031
:100F76000420000C1800F00F000000000000000024
:100F8600000000000000000009000000FE7F008253
:100F96004000824000824000824000824000824041
:100FA6000082400000000000000000000000000079
:100FB60000000000000009000000FE7F0082000023
:100FC600820000820000820000820000820000028F
:100FD600000000000000000000000000000000000B
:100FE600000000000B000000E007001818000420B5
:100FF600000240000240000241000241000261007E
:10100600042100183F00000000000000000000005E
:1010160000000A000000FE7F0080000080000080C3
:101026000000800000800000800000800000FE7F3D
:1010360000000000000000000000000000000000AA
:1010460002000000FE7F000000000000000000001B
:10105600000000000000000000000000000000008A
:101066000000000000000000000000000000070073
:101076000000003800004000004000004000004032
:1010860000FE3F000000000000000000000000001D
:101096000000000000000000000000000A00000040
:1010A600FE7F00000300800000C000002001001049
:1010B600060008180006200000400000000000009E
:1010C6000000000000000000000008000000FE7F95
:1010D60000004000004000004000004000004000CA
:1010E60000400000000000000000000000000000BA
:1010F60000000000000000000C000000FE7F00065B
:101106000000380000C00300001C00006000001C46
:10111600008003007000000E0000FE7F000000004B
:101126000000000000000A000000FE7F000400002E
:101136001800006000008001000006000018000092
:101146002000FE7F000000000000000000000000FC
:10115600000000000B000000E00700181800042043
:10116600000240000240000240000240000420004D
:10117600181800E007000000000000000000000052
:10118600000009000000FE7F0002010002010002CB
:101196000100020100020100860000780000000044
:1011A6000000000000000000000000000000000039
:1011B6000B000000E00700181800042000024000A1
:1011C600024000025800027000042000187800E077
:1011D600CF000000000000000000000000000B002F
:1011E6000000FE7F00020100020100020100020170
:1011F60000020100020700860C0078300000400063
:1012060000000000000000000000000009000000CF
:10121600381800442000824000824000024100024B
:101226004100042200181C0000000000000000001D
:10123600000000000000000000000902000002009B
:1012460000020000020000FE7F0002000002000013
:101256000200000200000000000000000000000084
:1012660000000000000000000A000000FE1F000051
:101276002000004000004000004000004000004008
:1012860000002000FE1F000000000000000000001B
:101296000000000000000B0200001C0000E000003F
:1012A600000700003800004000003800000700E09A
:1012B60000001C000002000000000000000000000A
:1012C600000000000E0000003E0000C01F0000608D
:1012D60000001C00C00300380000060000380000B3
:1012E600C00300001E00006000C01F003E0000009A
:1012F60000000A024000042000181800200400C064
:101306000300C00300200400181800042000024057
:1013160000000000000000000000000000000000C7
:10132600090200000C0000300000C00000007F0031
:10133600C000003000000C000002000000000000A9
:10134600000000000000000000000000000009028C
:101356006000025000024C000242008241004240FE
:10136600003240000A400006400000000000000075
:101376000000000000000000000000000400000063
:10138600FEFF070200040200040000000000000047
:101396000000000000000000000000000000000047
:1013A6000000000000000000000004060000F80035
:1013B60000001F00006000000000000000000000A8
:1013C6000000000000000000000000000000000017
:1013D600000000000000000003020004020004FEFA
:1013E600FF070000000000000000000000000000F1
:1013F60000000000000000000000000000000000E7
:1014060000000000000007800000600000180000D7
:1014160006000018000060000080000000000000C8
:1014260000000000000000000000000000000000B6
:10143600000000000900000100000100000100009A
:101446000100000100000100000100000100000190
:101456000000000000000000000000000000000086
:101466000000030000000200000C00000000000065
:101476000000000000000000000000000000000066
:101486000000000000000000000000000000000056
:1014960008000000803C0040660020420020420018
:1014A600204200203100C07F000000000000000044
:1014B600000000000000000000000000000008001E
:1014C6000000FE7F00402000204000204000204019
:1014D60000402000801F0000000000000000000007
:1014E60000000000000000000000000007801F0050
:1014F6004020002040002040002040006020008066
:1015060018000000000000000000000000000000BD
:101516000000000000000000000008000000801F1E
:1015260000402000204000204000204000402000D5
:10153600FE7F000000000000000000000000000028
:10154600000000000000000008000000801F0040AE
:101556002200204200204200204200402200801348
:101566000000000000000000000000000000000075
:1015760000000000000005200000FC7F00220000A3
:101586002200000200000000000000000000000031
:101596000000000000000000000000000000000045
:1015A6000000000008000000801F034020042040C7
:1015B60004204004204004402002E0FF0100000017
:1015C6000000000000000000000000000000000015
:1015D600000008000000FE7F004000002000002000
:1015E6000000200000600000C07F00000000000036
:1015F60000000000000000000000000000000000E5
:1016060002000000E27F0000000000000000000071
:1016160000000000000000000000000000000000C4
:1016260000000000000000000000000000000200B2
:101636000004E2FF070000000000000000000000B8
:101646000000000000000000000000000000000094
:10165600000000000000000000000000070000007D
:10166600FE7F0000020000030080040040180020F6
:101676006000000000000000000000000000000004
:101686000000000000000000000002000000FE7FD5
:101696000000000000000000000000000000000044
:1016A6000000000000000000000000000000000034
:1016B60000000000000000000C000000E07F004079
:1016C6000000200000200000200000C07F00400035
:1016D60000200000200000200000C07F0000000065
:1016E60000000000000008000000E07F004000004D
:1016F600200000200000200000600000C07F0000E5
:1017060000000000000000000000000000000000D3
:101716000000000008000000801F0040200020405C
:1017260000204000204000402000801F00000000F4
:1017360000000000000000000000000000000000A3
:10174600000008000000E0FF0740200020400020C5
:101756004000204000402000801F000000000000E4
:101766000000000000000000000000000000000073
:1017760008000000801F004020002040002040009C
:10178600204000402000E0FF0700000000000000AD
:10179600000000000000000000000000000005003E
:1017A6000000E07F00400000200000600000000014
:1017B6000000000000000000000000000000000023
:1017C600000000000000000000000000070000000C
:1017D600C03100204200204200204400204400C0C6
:1017E60038000000000000000000000000000000BB
:1017F6000000000000000000000003200000FC7F45
:101806000020400000000000000000000000000072
:1018160000000000000000000000000000000000C2
:10182600000000000000000008000000E03F00008B
:101836006000004000004000004000002000E07F03
:101846000000000000000000000000000000000092
:1018560000000000000007600000800300003C005C
:10186600004000003C008003006000000000000013
:101876000000000000000000000000000000000062
:10188600000000000B600000800300001C000060E8
:1018960000801F00600000801F00006000001C0028
:1018A600800300600000000000000000000000004F
:1018B600000007204000C0300000090000060000BC
:1018C6000900C030002040000000000000000000B9
:1018D6000000000000000000000000000000000002
:1018E60007600004800304003C0200C001003C00C5
:1018F60080030060000000000000000000000000FF
:1019060000000000000000000000000000000720AA
:101916006000205000204800204600204100A040E2
:101926000060400000000000000000000000000011
:101936000000000000000000000000000500040098
:10194600000E00FCFB03020004020004000000007D
:101956000000000000000000000000000000000081
:101966000000000000000000000002000000FEFF72
:10197600070000000000000000000000000000005A
:101986000000000000000000000000000000000051
:10199600000000000000000005020004020004FC34
:1019A600FB03000E00000400000000000000000021
:1019B6000000000000000000000000000000000021
:1019C6000000000000000800010080000080000008
:1019D60080000000010000010000010080010000FD
:1019E60000000000000000000000000000000000F1
:1019F6000000000005FE3F00022000022000022039
:101A060000FE3F0000000000000000000000000093
:101A160000000000000000000000000000000000C0
:021A26000000BE
:0D660D00C1004204640000C10141046100AD
:10659D00E4F59153B1BF53B2BFF59143B18053B2FE
:1065AD007F75985043878053C4F8F59143C4207587
:1065BD00C6FF75C5F3F59143C40843A810D2AF22A9
:0866CB008F993099FDC299225C
:10656A009005B4EBF0A3EAF0A3E9F09005B4E0FBE0
:10657A00A3E0FAA3E0F91232E860179005B4A3E4A5
:10658A0075F0011233ABA9F0FA1232E8FF1266CBAA
:03659A0080D92283
:030023000261A7D0
:1061A700C0E0C0F0C083C082C0D075D000C000C0BE
:1061B70004C007309851C298900463E599F0E0FF56
:1061C700640A600FC3900465E0943F900464E09410
:1061D70000401C900464E0FCA3E02466F58274048C
:1061E7003CF583E4F0D201900464F0A3F0801890AA
:1061F7000464E475F0011233ABFC746625F0F58294
:1062070074043CF583EFF0D007D004D000D0D0D091
:0862170082D083D0F0D0E03208
:10000300EF1FAA0670011E4A6013E4FCFDC3ED94C2
:0D001300E8EC940350EA0DBD00010C80F0F4
:0100200022BD
:10648500E4F59153B3DF53B4DFF59153B3FE53B441
:10649500FEF59153B1FE53B2FEF59153B1FD53B2E2
:1064A500FDF59143F408F59153F37FF59153F3DF2F
:1064B500F59153F3F7F59153F3FBF59143F310F58C
:1064C5009153F3FC43F303F59143F340F59153F4F2
:0264D5007F2224
:103B2A007F0212621F7F061259DBE4F59153B3BF7D
:103B3A0053B4BFF59143B38053B47FF59153B3FDAA
:103B4A0053B4FDF59153B3FB53B4FBF59153B3EF63
:103B5A0043B410126485124CB61262957F01126347
:103B6A00CAE4FFFE12642890000AE4F0A3746EF01F
:103B7A00A374FFF0A37405F0A37406F0A374FDF018
:103B8A00A37420F0E4A3F0A3F07B48FA7D05FC7F40
:103B9A0004FE12575890000AE4F0A3746EF0A3745E
:103BAA00FFF0A37405F0A37406F0A374FDF0A374E8
:103BBA0020F0E4A3F0A3F07B48FA7D7DFC7F04FEAD
:103BCA0012575890000AE4F0A3746EF0A374FFF041
:103BDA00A37405F0A37406F0A374FDF0A37420F097
:103BEA00E4A3F0A3F07B48FA7D7DFC7F54FE1257D4
:103BFA005890000AE4F0A3746EF0A374FFF0A37463
:103C0A0005F0A37406F0A374FDF0A37420F0E4A3F6
:103C1A00F0A3F07B48FA7D7DFC7FA4FE12575890F2
:103C2A00000AE4F0A3746EF0A374FFF0A37405F025
:103C3A00A37406F0A374FDF0A37420F0E4A3F0A328
:103C4A00F07B48FA7D7DFC7FF4FE12575890000AFB
:103C5A00E4F0A3746EF0A374FFF0A37405F0A374E8
:103C6A0006F0A374FDF0A37420F0E4A3F0A3F07BA4
:103C7A0048FA7D05FC7FF4FE12575890000AE4F0DA
:103C8A00A37428F0A374FFF0A37403F0A37476F06E
:103C9A00A374FDF0A37420F0E4A3F0A3F07B28FA48
:103CAA007D14FC7F14FE12575890000AE4F0A374A6
:103CBA0028F0A374FFF0A37404F0A3743EF0A37475
:103CCA00FDF0A37420F0E4A3F0A3F07B28FA7D8F23
:103CDA00FC7F16FE12575890000AE4F0A37430F0E5
:103CEA00A374FFF0A37400F0A37446F0A374FDF06C
:103CFA00A37420F0E4A3F0A3F07B30FA7D8BFC7F61
:103D0A005EFE12575890000AE4F0A37420F0A374E0
:103D1A00FFF0A37402F0A3742EF0A374FDF0A37451
:103D2A0020F0E4A3F0A3F07B20FA7D92FC7FB9FE99
:103D3A0012575890000AE4F0A37428F0A374FFF015
:103D4A00A37401F0A37466F0A374FDF0A37420F0C9
:103D5A00E4A3F0A3F07B28FA7D8EFC7F047E011297
:103D6A00575890000AE4F0A37428F0A374FFF0A354
:103D7A007402F0A374AEF0A374FDF0A37420F0E40F
:103D8A00A3F0A3F07B28FA7D14FC7F047E0112576E
:103D9A005890000774FFF0A37408F0A374E4F0A32A
:103DAA00E4F0A37412F0A3E4F0A37454F0A374FD36
:103DBA00F0A37420F0E4A3F0A3F07BFF7A00792645
:103DCA00125C0890000774FFF0A37408F0A374E46F
:103DDA00F0A3E4F0A3741EF0A3E4F0A374CCF0A360
:103DEA0074FDF0A37420F0E4A3F0A3F07BFF7A0043
:103DFA00792C125C0890000774FFF0A37408F0A3F2
:103E0A0074E4F0A3E4F0A37462F0A3E4F0A374CC26
:103E1A00F0A374FDF0A37420F0E4A3F0A3F07BFFF9
:103E2A007A00792F125C0890000774FFF0A37408D7
:103E3A00F0A374E4F0A3E4F0A374AEF0A3E4F0A357
:103E4A0074CCF0A374FDF0A37420F0E4A3F0A3F003
:103E5A007BFF7A007934125C0890000774FFF0A3A4
:103E6A007408F0A374E4F0A37401F0A37406F0A339
:103E7A00E4F0A374CCF0A374FDF0A37420F0E4A3DF
:103E8A00F0A3F07BFF7A00793A125C08900007747D
:103E9A00FFF0A37408F0A374E4F0A37401F0A37410
:103EAA0004F0A3E4F0A37454F0A374FDF0A3742007
:103EBA00F0E4A3F0A3F07BFF7A007940125C087F5C
:103ECA00E87E031200039000077401F0A37400F067
:103EDA00A37402F07B017A0079001258A9EF60E618
:103EEA00900461E070E0900000E0FEA3E0FFC3945C
:103EFA001EEE940040D0D3EF94C8EE940050C7A3AE
:103F0A00E0FEA3E0FFC39414EE940040B9D3EF940B
:0A3F1A00C8EE940050B0C29480ACD1
:0E661A004405AA000000F04405A6000001405F
:0864D700A3F07B017A057916A0
:0B64DF009005AEEBF0A3EAF0A3E9F09B
:1064EA001233C1FFAEF09005B1E0FBA3E0FAA3E0DE
:1064FA00F91233C1FD9005AEE0FBA3E0FAA3E0F97F
:10650A00E5F08DF01234249005B1E0FBA3E0FAA384
:08651A00E0F9EE8FF0023424D9
:0465CD007F0A7E00C3
:1065D100EF1FAA0670011E4A6013E4FCFDC3ED948F
:0D65E100E8EC940350EA0DBD00010C80F0C1
:0165EE00228A
:0A66A500C291C29512668BD29522B5
:0A66AF00D291C29512668BD295229B
:0A6658007A00793C7B017D047C0090
:0A666200D291C295126522D2952252
:05636C00E0FEA3E0FFCC
:0E637100900034EEF0A3EFF0A3ECF0A3EDF0FB
:10637F00900034E0FCA3E0FDEC90003CF0A3EDF0C6
:10638F00EAA3F0A3EBF07F2A1266A51266589000DD
:10639F0036E0FCA3E0FDEC90003CF0A3EDF09000A4
:1063AF003AE0FCA3E0FDEC90003EF0A3EDF07F2B74
:0B63BF001266A51266587F2C0266A52E
:0F667C00C2921265CDC2951265CDD292D29522EF
:0366E300D292222E
:104CB6001266E312667C7F011266A51265CD7FCB74
:104CC6001266A57F391266AF7F2C1266AFE4FF121B
:104CD60066AF7F341266AF7F021266AF7FCF126671
:104CE600A5E4FF1266AF7FC11266AF7F301266AFD2
:104CF6007FE81266A57F851266AFE4FF1266AF7F76
:104D0600781266AF7FEA1266A5E4FF1266AFE4FF8B
:104D16001266AF7FED1266A57F641266AF7F03123F
:104D260066AF7F121266AF7F811266AF7FF712669B
:104D3600A57F201266AF7FC01266A57F231266AFDD
:104D46007FC11266A57F101266AF7FC51266A57F6A
:104D56003E1266AF7F281266AF7FC71266A57F86B2
:104D66001266AF7F361266A57F481266AF7F3A128B
:104D760066A57F551266AF7FB11266A5E4FF12667F
:104D8600AF7F181266AF7FB61266A57F081266AFB0
:104D96007F821266AF7F271266AF7FF21266A5E4A6
:104DA600FF1266AF7F261266A57F011266AF7FE00F
:104DB6001266A57F0F1266AF7F311266AF7F2B1288
:104DC60066AF7F0C1266AF7F0E1266AF7F08126663
:104DD600AF7F4E1266AF7FF11266AF7F371266AFB6
:104DE6007F071266AF7F101266AF7F031266AF7F32
:104DF6000E1266AF7F091266AFE4FF1266AF7FE15F
:104E06001266A5E4FF1266AF7F0E1266AF7F14121C
:104E160066AF7F031266AF7F111266AF7F07126619
:104E2600AF7F311266AF7FC11266AF7F481266AFA1
:104E36007F081266AF7F0F1266AF7F0C1266AF7FD8
:104E4600311266AF7F361266AF7F0F1266AF7F11E3
:104E56001266A57F647E001265D17F291266A5E4DD
:044E6600FF0263CA1A
:1063CA00900004EFF07F361266A57F017E00126509
:1063DA00D1900004E014600E14600F1460262403A8
:1063EA00703B7F4880067F28801C7F881266AF90AA
:1063FA0005A6123669000000F09005AA1236690057
:10640A00000140227FE81266AF9005A612366900A5
:0E641A000001409005AA123669000000F02231
:02664100AC06A5
:10664300EC9005B7F0A3EFF07B017A0579B77D02F3
:056653007C00026662FC
:054E6A00E0FEA3E0FFE3
:084E6F00900034EEF0A3EFF017
:104E770090003A123669000001F4D291C295900071
:104E870034E090003EF090004B12366900000000BD
:104E970090003AE0FCA3E0FDA3E0FEA3E0FF900052
:104EA7004BE0F8A3E0F9A3E0FAA3E0FBC312356EE9
:104EB700504D90003EE0FB90004BA3A3E0FEA3E023
:104EC700FF244FF58274003EF583EBF0900034A386
:104ED700E0FD74502FF58274003EF583EDF09000ED
:104EE7004BE0FCA3E0FDA3E0FEA3E02402FFE43EC9
:104EF700FEE43DFDE43CFC90004B12365D8091E4FE
:104F07007F02FEFDFC900036E0F8A3E0F9A3E0FA8B
:104F1700A3E0FB12344390003F12365D90003AE065
:104F2700F8A3E0F9A3E0FAA3E0FB90003FE0FCA3BD
:104F3700E0FDA3E0FEA3E0FF1234CE90004312365B
:104F47005D90003AE0F8A3E0F9A3E0FAA3E0FB9054
:104F5700003FE0FCA3E0FDA3E0FEA3E0FF1234CE98
:104F6700AC00AD01AE02AF0390004712365DE4FF1F
:104F7700FEFDFC900043E0F8A3E0F9A3E0FAA3E00C
:104F8700FBC312356E606290004B12366900000059
:104F970000900043E0FCA3E0FDA3E0FEA3E0FF9048
:104FA700004BE0F8A3E0F9A3E0FAA3E0FBC3123556
:104FB7006E50367B017A00794F90003AA3A3E0FE4A
:104FC700A3E0FDAC0612652290004BE0FCA3E0FDD8
:104FD700A3E0FEA3E02401FFE43EFEE43DFDE43C44
:104FE700FC90004B12365D80A87B017A00794F90C8
:104FF7000047A3A3E0FEA3E0FDAC06126522D2950D
:015007002286
:10642800900004EEF0A3EFF09005A6A3A3E0FEA36E
:10643800E0FBAA069005AAA3A3E0FFA3E090003A18
:10644800CFF0A3EFF0E4FDFCFFFE1263719005AA04
:10645800E0FCA3E0FDA3E0FEA3E0FF9005A6E0F8C2
:10646800A3E0F9A3E0FAA3E0FB123443900036124C
:0D647800365D900004E0FEA3E0FF024E6FD1
:105EF90090058EFEE0FCA3E0FDC3900587E09DFDC3
:0E5F0900900586E09C90058AFCE0FAA3E0FB80
:105F170090002AEEF0A3EFF0A3ECF0A3EDF0A3EAD4
:045F2700F0A3EBF008
:105F2B0090002AE0FEA3E0FFE4FCFD9005A6E0F85C
:105F3B00A3E0F9A3E0FAA3E0FBD312356E50030202
:105F4B005FE890002CE0FEA3E0FFE4FCFD9005AAC7
:105F5B00E0F8A3E0F9A3E0FAA3E0FBD312356E401F
:105F6B007C90002AE0FCA3E0FDEC900030F0A3ED68
:105F7B00F0240190002AE03400900032F0ED04A3ED
:105F8B00F090002CE0FCA3E0FDEC900034F0A3EDCE
:105F9B00F0240190002CE03400900036F0ED04A3C7
:105FAB00F090002EE0FCA3E0FDEC900038F0A3EDA8
:105FBB00F07F2A1266A57A00793012665C7F2B126D
:105FCB0066A57B017A00793412665E7F2C1266A57A
:0D5FDB007B017A0079387D027C001266623D
:015FE8002296
:1055F80090002AEEF0A3EFF0A3ECF0A3EDF0A3EAFD
:10560800F0A3EBF090002AE0FEA3E0FFE4FCFD909D
:1056180005A6E0F8A3E0F9A3E0FAA3E0FBD312356E
:105628006E500302575790002CE0FEA3E0FFE4FC05
:10563800FD9005AAE0F8A3E0F9A3E0FAA3E0FBD304
:1056480012356E500302575790002EE0FEA3E0FF7C
:1056580090002BE02FFF90002AE03ECF24FFCF34AC
:10566800FFFEE4FCFD9005A6E0F8A3E0F9A3E0FA4C
:10567800A3E0FBD312356E501F9005A6A3A3E0FE4E
:10568800A3E0FF90002AE0FCA3E0FDC3EF9DFFEE3E
:105698009C90002EF0A3EFF0900030E0FEA3E0FF16
:1056A80090002DE02FFF90002CE03ECF24FFCF3458
:1056B800FFFEE4FCFD9005AAE0F8A3E0F9A3E0FAF8
:1056C800A3E0FBD312356E501F9005AAA3A3E0FEFA
:1056D800A3E0FF90002CE0FCA3E0FDC3EF9DFFEEEC
:1056E8009C900030F0A3EFF090002CE0FCA3E0FDCC
:1056F800A3E0FEA3E0FF90002AE0FAA3E02FFFEA70
:105708003ECF24FFFBEF34FFFA900030E0FEA3E029
:10571800FF90002CE0F8A3E02FFFE83ECF24FFCF56
:1057280034FF90003AF0A3EFF090002A12636C90D7
:10573800002EE0FCA3E0FDA3E0FEA3E0FF12332E61
:10574800E4FCFD90003612365D900032124E6A225B
:105AF400FC900552E0FAA3E0FB90054EE0FFA3E022
:105B040090059CCFF0A3EFF0900546E0FEA3E0FFE4
:105B1400900596EEF0A3EFF0A3ECF0A3EDF0A3EA6A
:105B2400F0A3EBF0900596E0FEA3E0FFE4FCFD900B
:105B340005A6E0F8A3E0F9A3E0FAA3E0FBD312354D
:105B44006E5003025C07900598E0FEA3E0FFE4FCBE
:105B5400FD9005AAE0F8A3E0F9A3E0FAA3E0FBD3E3
:105B640012356E5003025C0790059AE0FEA3E0FF35
:105B7400900597E02FFF900596E03ECF24FFCF34A9
:105B8400FFFEE4FCFD9005A6E0F8A3E0F9A3E0FA2B
:105B9400A3E0FBD312356E501F9005A6A3A3E0FE2D
:105BA400A3E0FF900596E0FCA3E0FDC3EF9DFFEEAC
:105BB4009C90059AF0A3EFF0900598E0FCA3E0FD1B
:105BC400A3E0FEA3E0FF900596E0FAA3E02FFFEA2E
:105BD4003ECF24FFFBEF34FFFAA3E0FFA3E09000E5
:105BE4003ACFF0A3EFF090059612636C90059AE01B
:105BF400FEA3E0FFE4FCFD90003612365D90059CA8
:045C0400124E6A22B0
:103F2400900516EEF0A3EFF0A3ECF0A3EDF0A3EAF6
:043F3400F0A3EBF01B
:103F3800900516E0FEA3E0FFC390051BE09FFF90ED
:103F4800051AE09EFE126699C006C007900518E0A3
:103F5800FEA3E0FFC390051DE09FFF90051CE09EB7
:103F6800FE126699D005D004D3EF9DEC6480F8EE7C
:103F78006480987E0040047F0180027F0090052CB9
:103F8800EEF0A3EFF04E60269005B17401F0A37433
:103F980005F074181264D79005B17401F0A3740584
:103FA800F0A3741CF07B017A05791A1264DF90057E
:103FB8001AE0FEA3E0FFD3900517E09F900516E0F6
:103FC8009E40269005B17401F0A37405F0741A128E
:103FD80064D79005B17401F0A37405F0A3741CF0C4
:103FE8007B017A0579181264DF900516E0FEA3E0DC
:103FF800FFC390051BE09FFF90051AE09E900520E7
:10400800F0A3EFF0900518E0FEA3E0FFC390051DB4
:10401800E09FFF90051CE09EFE126699900522EE37
:10402800F0A3EFF0900520E0C313FFA3E013900581
:1040380024CFF0A3EFF074FFA3F0A3F0900516E0EF
:10404800FFA3E0900528CFF0A3EFF0E4A3F0A3F0DE
:1040580090051CE0FEA3E0FFC3900519E09F9005C2
:1040680018E09E5008900526E4F0A304F090052C73
:10407800E07002A3E0700302419A90051AE0FEA3E3
:10408800E0FFD3900517E09F900516E09E400302DD
:10409800416A90052BE004F0700690052AE004F0D0
:1040A800900522E0FEA3E0FFC3900525E09FFF9066
:1040B8000524E09EFEF0A3EFF0C3EE940040030257
:1040C800415990052AE07004A3E064017018900536
:1040D80018E0FEA3E0FF900528E0FCA3E0FD9005B2
:1040E8001E125F128028900528E0FCA3E0FDA3E0E3
:1040F800FAA3E0FB90051EE0FFA3E09005A4CFF033
:10410800A3EFF0900518E0FEA3E0FF125D10E49025
:10411800052AF0A3F0900526E0FEA3E0FF9005191C
:10412800E02FF0900518E03EF0900517E02401FE1E
:10413800900516E03400900528F0A3CEF0900520F5
:10414800E0FEA3E0FF900525E02FF0900524E03E77
:10415800F0900517E004F07006900516E004F002F0
:10416800408290052AE0FAA3E0FB4A70030242A7C6
:10417800900528E0FCA3E0FD90051EE0FFA3E09079
:1041880005A4CFF0A3EFF0900518E0FEA3E0FF022E
:104198005D1090051AE0FEA3E0FFD3900517E09F9D
:1041A800900516E09E400302427F90052BE004F044
:1041B800700690052AE004F0900522E0FEA3E0FFD7
:1041C800C3900525E09FFF900524E09EFEF0A3EF35
:1041D800F0C3EE9400400302426E90052AE070049A
:1041E800A3E064017018900528E0FEA3E0FF9005A5
:1041F80018E0FCA3E0FD90051E125F1280259005D3
:1042080018E0FCA3E0FD90052AE0FAA3E0FB900586
:104218001EE0FFA3E090059CCFF0A3EFF0900528E7
:10422800125B0FE490052AF0A3F0900526E0FEA3A8
:10423800E0FF900519E02FF0900518E03EF090059A
:1042480017E02401FE900516E03400900528F0A33D
:10425800CEF0900520E0FEA3E0FF900525E02FF0CA
:10426800900524E03EF0900517E004F070069005F4
:1042780016E004F002419A90052AE0FAA3E0FB4A0E
:10428800601D900518E0FCA3E0FD90051EE0FFA36B
:0F429800E090059CCFF0A3EFF0900528125B0F8C
:0142A70022F4
:105D100090059EEEF0A3EFF0A3ECF0A3EDF0A3EA64
:105D2000F0A3EBF090059EE0FEA3E0FFE4FCFD9005
:105D300005A6E0F8A3E0F9A3E0FAA3E0FBD312354F
:105D40006E5003025E079005A0E0FEA3E0FFE4FCB6
:105D5000FD9005AAE0F8A3E0F9A3E0FAA3E0FBD3E5
:105D600012356E5003025E079005A2E0FEA3E0FF2D
:105D70009005A1E02FFF9005A0E03ECF24FFCF3497
:105D8000FFFEE4FCFD9005AAE0F8A3E0F9A3E0FA29
:105D9000A3E0FBD312356E501D9005AAA3A3E0FE2D
:105DA000A3E0FF9005A0E0FCA3E0FDC3EF9DFFEEA4
:105DB0009CA3F0A3EFF090059EE0FAA3E0FBFFAEFA
:105DC00002C006C007A3E0FCA3E0FDA3E0FEA3E041
:105DD000FF9005A0E0F8A3E02FFFE83ECF24FFCF1F
:105DE00034FF90003AF0A3EFF0D007D006126371B1
:105DF0009005A2E0FEA3E0FFE4FCFD900036123621
:085E00005D9005A4124E6A2218
:1044FB00900584EEF0A3EFF0A3ECF0A3EDF0A3EAAC
:04450B00F0A3EBF03E
:10450F00900588E0FCA3E0FD24FFFEEC34FF90054E
:10451F008CF0A3CEF0E4A3F0A3F0A3F0A304F0A3D8
:10452F00E4F0A304F0ED25E0FFEC33FEC374019F2C
:10453F00900595F0E49E900594F090058EE0FEA313
:10454F00E0FF90058CE0FCA3E0FDC39FEE6480F8D4
:10455F00EC648098500302470D900585E02DFF9085
:10456F000584E03CFE90058EE0FCA3E0FD900587FE
:10457F00E02DFD900586E03C125F0E90058EE0FE6B
:10458F00A3E0FF900585E02FFF900584E03EFE90AD
:10459F00058CE0FCA3E0FD900587E02DFD900586DE
:1045AF00E03C125F0E90058EE0FEA3E0FFC3900586
:1045BF0085E09FFF900584E09EFE90058CE0FCA3B4
:1045CF00E0FD900587E02DFD900586E03C125F0E23
:1045DF0090058CE0FEA3E0FFC3900585E09FFF9060
:1045EF000584E09EFE90058EE0FCA3E0FD9005871C
:1045FF00E02DFD900586E03C125F0E90058CE0FEED
:10460F00A3E0FFC3900585E09FFF900584E09E1215
:10461F005EF990058EE0FEA3E0FFC3900585E09F55
:10462F00FF900584E09E90058C125EFC90058EE055
:10463F00FEA3E0FF900585E02FFF900584E03EFE8E
:10464F0090058C125EFD90058CE0FEA3E0FF9005B7
:10465F0085E02FFF900584E03E125EF9D39005951B
:10466F00E09400900594E064809480503090058F22
:10467F00E004F0700690058EE004F0900592E0FEE5
:10468F00A3E0FF900595E02FF0900594E03EF090A9
:10469F000593E02402F0900592E03400F0D39005EA
:1046AF0095E09400900594E0648094805003024557
:1046BF004990058DE024FFF090058CE034FFF090D9
:1046CF000591E02402F0900590E03400F090058809
:1046DF00E0FEA3E0FFC3E49FFFE49EFEEF25E0FFB3
:1046EF00EE33FE900591E02FFF900590E03EFE9097
:0E46FF000595E02FF0900594E03EF00245494D
:01470D002289
:0E49180090055CEEF0A3EFF0A3ECF0A3EDF041
:10492600900564EAF0A3EBF0E4A3F0A3F0EB25E036
:10493600FFEA33FEC374019F900569F0E49E90057B
:1049460068F0E490056AF0A3F0A3F0A3F090056682
:10495600E0FEA3E0FF900564E0FCA3E0FDC39FEE4C
:104966006480F8EC6480985003024AFF90055DE08D
:104976009DFE90055CE09C90056EF0A3CEF0900540
:1049860064E0FEA3E0FF90055DE02FFD90055CE08E
:104996003EFC90056EE0FEA3E0FFD39DEE9C504CDE
:1049A600900566E0FCA3E0FD90055FE02DFD900517
:1049B6005EE03C900562125F1190056EE0FEA3E09A
:1049C600FF900566E0FCA3E0FDC390055FE09DFD5A
:1049D60090055EE09CFC900562125F1290056FE008
:1049E60004F0709A90056EE004F08092900566E0FF
:1049F600FEA3E0FFC390055DE09FFF90055CE09E8F
:104A060090056EF0A3EFF0900566E0FEA3E0FF9040
:104A1600055DE02FFD90055CE03EFC90056EE0FE36
:104A2600A3E0FFD39DEE9C504D900564E0FCA3E00F
:104A3600FD90055FE02DFD90055EE03CFC90056273
:104A4600125F1290056EE0FEA3E0FF900564E0FCA5
:104A5600A3E0FDC390055FE09DFD90055EE09CFC34
:104A6600900562125F1290056FE004F07099900550
:104A76006EE004F08091900567E004F07006900502
:104A860066E004F090056AE0FEA3E0FF90056DE0A5
:104A96002FF090056CE03EF090056BE02402F0905C
:104AA600056AE03400F090056DE025E0FF90056CA6
:104AB600E033FE900568E0FCA3E0FD2FFFEC3EFE30
:104AC600D3EF9400EE64809480500302495390051E
:104AD60065E024FFF0900564E034FFF090056DE09A
:104AE6002DF090056CE03CF0900569E02402F09012
:094AF6000568E03400F0024953A8
:014AFF002294
:10470E00900546EEF0A3EFF0A3ECF0A3EDF0A3EAD4
:04471E00F0A3EBF029
:10472200E4900552F0A3F0A3F0A3F0A3F0A3F0A34A
:1047320012366900000000900546E0FEA3E0FFC3C8
:10474200EB9FFDEA9EFCE41231B990055812365DEA
:10475200E4FFFEFDFC900558E0F8A3E0F9A3E0FABF
:10476200A3E0FB12313B50069005567401F0900510
:104772005812366900000000900548E0FEA3E0FFF1
:10478200C390054DE09FFD90054CE09EFCE4123184
:10479200B990055812365DE4FFFEFDFC900558E025
:1047A200F8A3E0F9A3E0FAA3E0FB12313B50069034
:1047B20005577401F0900556E07014900546E0FE2E
:1047C200A3E0FFC390054BE09FFF90054A80129043
:1047D200054AE0FEA3E0FFC3900547E09FFF900576
:1047E20046E09E900552F0A3EFF0E4900551F09060
:1047F2000550E0FFA3E0FDC39F502EEDFF90054959
:10480200E02FFD900548E03400125AF4900551E083
:10481200FFC390054DE09FFD90054CE09400125AB5
:10482200F4900551E004F080C6900557E0701490B2
:104832000548E0FEA3E0FFC390054DE09FFF900511
:104842004C801290054CE0FEA3E0FFC3900549E0C6
:104852009FFF900548E09E900554F0A3EFF0E4908E
:104862000551F0900550E0FFA3E0FEC39F5077EEA4
:10487200FF900547E02FFF900546E03400FEC00799
:10488200900548E0FCA3E0FD900554E0FAA3E0FBAC
:1048920090054EE0FFA3E09005A4CFF0A3EFF0D087
:1048A20007125D10900551E0FFC390054BE09FFF9A
:1048B20090054AE09400FEC007900548E0FCA3E0A2
:1048C200FD900554E0FAA3E0FB90054EE0FFA3E063
:1048D2009005A4CFF0A3EFF0D007125D1090055120
:1048E200E004F0024865D3900553E094009005522D
:1048F200E09400500E900555E09400900554E09429
:1049020000401290054AE0FEA3E0FFA3E0FCA3E012
:05491200FDA3125F127D
:01491700227D
:1054930090052EEEF0A3EFF0A3ECF0A3EDF0A3EA5A
:0454A300F0A3EBF097
:1054A700E4900538F0A3F0A3F0A3F0A3F0A3F0A3D2
:1054B70012366900000000E4900542F0A3F0A3F063
:1054C700A3F090052EE0FEA3E0FFC3EB9FFFEA9E4B
:1054D700FEE4FCFD90053E12365DE4FFFEFDFC9008
:1054E700053EE0F8A3E0F9A3E0FAA3E0FBC3123519
:1054F7006E500690053C7401F090053E1236690027
:10550700000000900530E0FEA3E0FFC3900535E002
:105517009FFF900534E09EFEE4FCFD90053E1236A9
:105527005DE4FFFEFDFC90053EE0F8A3E0F9A3E093
:10553700FAA3E0FBC312356E500690053D7401F0E7
:1055470090053CE0701490052EE0FAA3E0FBC390B1
:105557000533E09BFE9005328012900532E0FAA3F6
:10556700E0FBC390052FE09BFE90052EE09A900587
:1055770038F0A3CEF0900542EAF0A3EBF090053D9A
:10558700E07014900530E0FAA3E0FBC3900535E026
:105597009BFE9005348012900534E0FAA3E0FBC32C
:1055A700900531E09BFE900530E09A90053AF0A314
:1055B700CEF0900544EAF0A3EBF0900544E0FCA39D
:1055C700E0FD900538E0FAA3E0FBA3E0FFA3E0903D
:1055D7000030CFF0A3EFF0900536E0FFA3E0900096
:1055E70032CFF0A3EFF0900542E0FEA3E0FF0255B3
:0155F700F8BB
:0E2447009004A6EEF0A3EFF0A3ECF0A3EDF0EE
:10245500A3E0FCA3E0FDA3E0FEA3E0FF9004AAE057
:10246500F8A3E0F9A3E0FAA3E0FB1234439004BC1F
:1024750012365D9004AEE0FCA3E0FDA3E0FEA3E010
:10248500FFA804A905AA06FB1234439004C012361E
:102495005DE47F04FEFDFC9004BCE0F8A3E0F9A335
:1024A500E0FAA3E0FB1234439004C412365DE47FE6
:1024B50004FEFDFC9004C0E0F8A3E0F9A3E0FAA354
:1024C500E0FB1234439004C812365DE47F02FEFD42
:1024D500FC9004AAE0F8A3E0F9A3E0FAA3E0FBC3AB
:1024E50012356E5003022B07E47F02FEFDFC9004BB
:1024F500AEE0F8A3E0F9A3E0FAA3E0FB12356E50D5
:1025050003022B079004B412366900000000900402
:10251500AEE0FCA3E0FDA3E0FEA3E0FF9004B8124B
:10252500365DE47F02FEFDFC9004AEE0F8A3E0F921
:10253500A3E0FAA3E0FB123443C374019FFFE49EBA
:10254500FEE49DFDE49CFC9004BCE0F8A3E0F9A347
:10255500E0FAA3E0FB123443C004C005C006C0077F
:10256500E47F02FEFDFC9004C0E0F8A3E0F9A3E0DF
:10257500FAA3E0FB123443D003D002D001D000EF20
:102585002BFFEE3AFEED39FDEC38FC9004CC022829
:10259500029004B8E0FCA3E0FDA3E0FEA3E0FFA3E6
:1025A500E0F8A3E0F9A3E0FAA3E0FB123443C0048A
:1025B500C005C006C0079004B4E0FCA3E0FDA3E09D
:1025C500FEA3E0FF9004C0E0F8A3E0F9A3E0FAA3BE
:1025D500E0FB123443A804A905AA06AB07D007D02F
:1025E50006D005D004D312356E40030228089004A6
:1025F500B4A3A3E0FEA3E0FF9004A7E02FFF90049F
:10260500A6E03EFEC006C0079004B8A3A3E0FEA363
:10261500E0FF9004A9E02FFD9004A8E03EFC9004A3
:10262500B2E0FAA3E0FBD007D006125F179004B41E
:10263500A3A3E0FEA3E0FFC39004A7E09FFF9004DF
:10264500A6E09EFEC006C0079004B8A3A3E0FEA3C3
:10265500E0FF9004A9E02FFD9004A8E03EFC900463
:10266500B2E0FAA3E0FBD007D006125F179004B4DE
:10267500A3A3E0FEA3E0FFC39004A7E09FFF90049F
:10268500A6E09EFEC006C0079004B8A3A3E0FEA383
:10269500E0FFC39004A9E09FFD9004A8E09EFC9094
:1026A50004B2E0FAA3E0FBD007D006125F1790044E
:1026B500B4A3A3E0FEA3E0FF9004A7E02FFF9004DE
:1026C500A6E03EFEC006C0079004B8A3A3E0FEA3A3
:1026D500E0FFC39004A9E09FFD9004A8E09EFC9054
:1026E50004B2E0FAA3E0FBD007D006125F17E4FFBF
:1026F500FEFDFC9004CCE0F8A3E0F9A3E0FAA3E02A
:10270500FBC312356E40759004CCE0F8C000C001E3
:10271500C002C0039004B8E0F8A3E0F9A3E0FAA36F
:10272500E0FB74019BFFE49AFEE499FDE498FC90BC
:1027350004C4E0F8A3E0F9A3E0FAA3E0FB123443F4
:10274500D003D002D001D000EB2FFFEA3EFEE93DD9
:10275500FDE83CFC9004CC12365D9004B8E0FCA387
:10276500E0FDA3E0FEA3E024FFFFEE34FFFEED3421
:10277500FFFDEC34FFFC9004B812365D9004CCE00C
:10278500F8A3E0F9A3E0FAA3E0FBC000C001C00292
:10279500C003E47F04FEFDFC9004B4E0F8A3E0F977
:1027A500A3E0FAA3E0FB123443EF2406FFE43EFE68
:1027B500E43DFDE43CFC9004C0E0F8A3E0F9A3E0AF
:1027C500FAA3E0FB123443D003D002D001D000EBD2
:1027D5002FFFEA3EFEE93DFDE83CFC9004CC1236B5
:1027E5005D9004B4E0FCA3E0FDA3E0FEA3E02401BA
:1027F500FFE43EFEE43DFDE43CFC9004B412365D8E
:102805000225969004AAE0FCA3E0FDA3E0FEA3E068
:10281500FF9004B412365D9004B8123669000000CA
:1028250000E47F02FEFDFC9004AAE0F8A3E0F9A312
:10283500E0FAA3E0FB123443C374019FFFE49EFE5C
:10284500E49DFDE49CFC9004C0E0F8A3E0F9A3E05E
:10285500FAA3E0FB123443C004C005C006C007E478
:102865007F02FEFDFC9004BCE0F8A3E0F9A3E0FACA
:10287500A3E0FB123443D003D002D001D000EF2BEC
:10288500FFEE3AFEED39FDEC38FC9004CC022B014D
:102895009004B4E0FCA3E0FDA3E0FEA3E0FF9004F8
:1028A500C0E0F8A3E0F9A3E0FAA3E0FB123443C0CB
:1028B50004C005C006C0079004B8E0FCA3E0FDA372
:1028C500E0FEA3E0FFA3E0F8A3E0F9A3E0FAA3E0AC
:1028D500FB123443A804A905AA06AB07D007D00606
:1028E500D005D004D312356E4003022B079004B4F3
:1028F500A3A3E0FEA3E0FF9004A7E02FFF9004A6AA
:10290500E03EFEC006C0079004B8A3A3E0FEA3E026
:10291500FF9004A9E02FFD9004A8E03EFC9004B2CE
:10292500E0FAA3E0FBD007D006125F179004B4A32A
:10293500A3E0FEA3E0FFC39004A7E09FFF9004A6D9
:10294500E09EFEC006C0079004B8A3A3E0FEA3E086
:10295500FF9004A9E02FFD9004A8E03EFC9004B28E
:10296500E0FAA3E0FBD007D006125F179004B4A3EA
:10297500A3E0FEA3E0FFC39004A7E09FFF9004A699
:10298500E09EFEC006C0079004B8A3A3E0FEA3E046
:10299500FFC39004A9E09FFD9004A8E09EFC90046D
:1029A500B2E0FAA3E0FBD007D006125F179004B49B
:1029B500A3A3E0FEA3E0FF9004A7E02FFF9004A6E9
:1029C500E03EFEC006C0079004B8A3A3E0FEA3E066
:1029D500FFC39004A9E09FFD9004A8E09EFC90042D
:1029E500B2E0FAA3E0FBD007D006125F17E4FFFEC2
:1029F500FDFC9004CCE0F8A3E0F9A3E0FAA3E0FB2A
:102A0500C312356E40759004CCE0F8C000C001C01B
:102A150002C0039004B4E0F8A3E0F9A3E0FAA3E050
:102A2500FB74019BFFE49AFEE499FDE498FC900495
:102A3500C8E0F8A3E0F9A3E0FAA3E0FB123443D021
:102A450003D002D001D000EB2FFFEA3EFEE93DFDA9
:102A5500E83CFC9004CC12365D9004B4E0FCA3E0A5
:102A6500FDA3E0FEA3E024FFFFEE34FFFEED34FFFF
:102A7500FDEC34FFFC9004B412365D9004CCE0F814
:102A8500A3E0F9A3E0FAA3E0FBC000C001C002C0C7
:102A950003E47F04FEFDFC9004B8E0F8A3E0F9A38D
:102AA500E0FAA3E0FB123443EF2406FFE43EFEE424
:102AB5003DFDE43CFC9004BCE0F8A3E0F9A3E0FA9A
:102AC500A3E0FB123443D003D002D001D000EB2F9A
:102AD500FFEA3EFEE93DFDE83CFC9004CC12365D84
:102AE5009004B8E0FCA3E0FDA3E0FEA3E02401FF11
:102AF500E43EFEE43DFDE43CFC9004B812365D0284
:022B0500289511
:012B070022AB
:0E2B08009004D0EEF0A3EFF0A3ECF0A3EDF0FC
:102B1600A3E0FCA3E0FDA3E0FEA3E0FF9004D4E065
:102B2600F8A3E0F9A3E0FAA3E0FB1234439004E62D
:102B360012365D9004D8E0FCA3E0FDA3E0FEA3E01E
:102B4600FFA804A905AA06FB1234439004EA12362C
:102B56005DE47F04FEFDFC9004E6E0F8A3E0F9A343
:102B6600E0FAA3E0FB1234439004EE12365DE47FF4
:102B760004FEFDFC9004EAE0F8A3E0F9A3E0FAA362
:102B8600E0FB1234439004F212365DE47F02FEFD50
:102B9600FC9004D4E0F8A3E0F9A3E0FAA3E0FBC3B9
:102BA60012356E500302313AE47F02FEFDFC9004BA
:102BB600D8E0F8A3E0F9A3E0FAA3E0FB12356E50E3
:102BC6000302313A9004DE123669000000009004D8
:102BD600D8E0FCA3E0FDA3E0FEA3E0FF9004E21230
:102BE600365DE47F02FEFDFC9004D8E0F8A3E0F930
:102BF600A3E0FAA3E0FB123443C374019FFFE49EF3
:102C0600FEE49DFDE49CFC9004E6E0F8A3E0F9A355
:102C1600E0FAA3E0FB123443C004C005C006C007B7
:102C2600E47F02FEFDFC9004EAE0F8A3E0F9A3E0ED
:102C3600FAA3E0FB123443D003D002D001D000EF58
:102C46002BFFEE3AFEED39FDEC38FC9004F6022E31
:102C56007C9004E2E0FCA3E0FDA3E0FEA3E0FFA37A
:102C6600E0F8A3E0F9A3E0FAA3E0FB123443C004C2
:102C7600C005C006C0079004DEE0FCA3E0FDA3E0AB
:102C8600FEA3E0FF9004EAE0F8A3E0F9A3E0FAA3CC
:102C9600E0FB123443A804A905AA06AB07D007D067
:102CA60006D005D004D312356E4003022E8290045E
:102CB600DEA3A3E0FEA3E0FFC39004D1E09FFF9054
:102CC60004D0E09EFEC006C0079004E2A3A3E0FE87
:102CD600A3E0FFC39004D3E09FFD9004D2E09EFCE6
:102CE6009004DEA3A3E0FEA3E0FB2BFFEE33CF248C
:102CF60001FBE43FFA9004DCE0FFA3E090059CCFE3
:102D0600F0A3EFF0D007D006125B149004DEA3A365
:102D1600E0FEA3E0FFC39004D1E09FFF9004D0E063
:102D26009EFEC006C0079004E2A3A3E0FEA3E0FF58
:102D36009004D3E02FFD9004D2E03EFC9004DEA385
:102D4600A3E0FEA3E0FB2BFFEE33CF2401FBE43F21
:102D5600FA9004DCE0FFA3E090059CCFF0A3EFF02F
:102D6600D007D006125B14E4FFFEFDFC9004F6E0EB
:102D7600F8A3E0F9A3E0FAA3E0FBC312356E4075B1
:102D86009004F6E0F8C000C001C002C0039004E25F
:102D9600E0F8A3E0F9A3E0FAA3E0FB74019BFFE4EB
:102DA6009AFEE499FDE498FC9004EEE0F8A3E0F9BD
:102DB600A3E0FAA3E0FB123443D003D002D001D043
:102DC60000EB2FFFEA3EFEE93DFDE83CFC9004F6F1
:102DD60012365D9004E2E0FCA3E0FDA3E0FEA3E072
:102DE60024FFFFEE34FFFEED34FFFDEC34FFFC90D4
:102DF60004E212365D9004F6E0F8A3E0F9A3E0FAE7
:102E0600A3E0FBC000C001C002C003E47F04FEFDD6
:102E1600FC9004DEE0F8A3E0F9A3E0FAA3E0FB12DD
:102E26003443EF2406FFE43EFEE43DFDE43CFC9023
:102E360004EAE0F8A3E0F9A3E0FAA3E0FB123443C6
:102E4600D003D002D001D000EB2FFFEA3EFEE93DD1
:102E5600FDE83CFC9004F612365D9004DEE0FCA32F
:102E6600E0FDA3E0FEA3E02401FFE43EFEE43DFD19
:102E7600E43CFC9004DE12365D022C579004D4E04C
:102E8600FCA3E0FDA3E0FEA3E0FF9004DE12365DA6
:102E96009004E212366900000000E47F02FEFDFCA9
:102EA6009004D4E0F8A3E0F9A3E0FAA3E0FB12341F
:102EB60043C374019FFFE49EFEE49DFDE49CFC90E9
:102EC60004EAE0F8A3E0F9A3E0FAA3E0FB12344336
:102ED600C004C005C006C007E47F02FEFDFC9004E6
:102EE600E6E0F8A3E0F9A3E0FAA3E0FB123443D04E
:102EF60003D002D001D000EF2BFFEE3AFEED39FDF4
:102F0600EC38FC9004F60231349004DEE0FCA3E0D9
:102F1600FDA3E0FEA3E0FF9004EAE0F8A3E0F9A336
:102F2600E0FAA3E0FB123443C004C005C006C007A4
:102F36009004E2E0FCA3E0FDA3E0FEA3E0FFA3E033
:102F4600F8A3E0F9A3E0FAA3E0FB123443A804A92E
:102F560005AA06AB07D007D006D005D004D3123594
:102F66006E400302313A9004DEA3A3E0FEA3E0FF25
:102F7600C39004D1E09FFF9004D0E09EFEC006C03F
:102F8600079004E2A3A3E0FEA3E0FFC39004D3E00E
:102F96009FFD9004D2E09EFC9004DEA3A3E0FEA376
:102FA600E0FB2BFFEE33CF2401FBE43FFA9004DC79
:102FB600E0FFA3E090059CCFF0A3EFF0D007D0068A
:102FC600125B149004DEA3A3E0FEA3E0FFC390040B
:102FD600D1E09FFF9004D0E09EFEC006C00790049B
:102FE600E2A3A3E0FEA3E0FF9004D3E02FFD90044C
:102FF600D2E03EFC9004DEA3A3E0FEA3E0FB2BFFA1
:10300600EE33CF2401FBE43FFA9004DCE0FFA3E0BB
:1030160090059CCFF0A3EFF0D007D006125B14E426
:10302600FFFEFDFC9004F6E0F8A3E0F9A3E0FAA3A6
:10303600E0FBC312356E40759004F6E0F8C000C0A0
:1030460001C002C0039004DEE0F8A3E0F9A3E0FAB1
:10305600A3E0FB74019BFFE49AFEE499FDE498FC6F
:103066009004F2E0F8A3E0F9A3E0FAA3E0FB12343F
:1030760043D003D002D001D000EB2FFFEA3EFEE999
:103086003DFDE83CFC9004F612365D9004DEE0FC63
:10309600A3E0FDA3E0FEA3E024FFFFEE34FFFEED78
:1030A60034FFFDEC34FFFC9004DE12365D9004F62E
:1030B600E0F8A3E0F9A3E0FAA3E0FBC000C001C07A
:1030C60002C003E47F04FEFDFC9004E2E0F8A3E006
:1030D600F9A3E0FAA3E0FB123443EF2406FFE43E33
:1030E600FEE43DFDE43CFC9004E6E0F8A3E0F9A331
:1030F600E0FAA3E0FB123443D003D002D001D000A3
:10310600EB2FFFEA3EFEE93DFDE83CFC9004F6129B
:10311600365D9004E2E0FCA3E0FDA3E0FEA3E0241C
:1031260001FFE43EFEE43DFDE43CFC9004E2123681
:043136005D022F0FF8
:01313A002272
:10531800C3EF6480949F5003025492D3EF64809447
:10532800FF40030254921232E8FD9000011233014B
:10533800900020F0900002123301900021F09000BC
:1053480003123301900022F0EF3395E0FEEF24E0E2
:10535800FFEE34FFFE7C0012332EEF2404FFE43E00
:10536800FEE92FF9EA3EFAA3EBF0A3EAF0A3E9F08D
:1053780090001AE0FCA3E0FD900020E0FB7A00A377
:10538800E0FF900030E4F0A3EFF090001EE0FFA3F0
:10539800E0900032CFF0A3EFF0900018E0FEA3E019
:1053A800FF1255F8E4900026F0A3F0900021E0FFEA
:1053B800C3900027E09F7480F8900026E0648098EE
:1053C8004003025492E4900028F0A3F0900020E0FB
:1053D800FF900028E0FCA3E0FDC39F7480F8EC6414
:1053E80080984003025481900022E0FF7E0012332F
:1053F8002EAC06AD077E00900027E054F87803CE67
:10540800A2E713CE13D8F82DFFEC3ECF2401CF34FA
:1054180000FE900023E0FBA3E0FAA3E0F98F828E60
:1054280083123301FF900026A3E05407FEF87401AD
:10543800088002C333D8FC5F602E900028E0FEA3EA
:10544800E0FF900019E02FFF900018E03EFE90006A
:1054580026E0FCA3E0FD90001BE02DFD90001AE083
:105468003CFC90001C125F12900029E004F07006CA
:10547800900028E004F00253D4900027E004F07074
:0A54880006900026E004F00253B382
:0154920022F7
:0B5C0800900004EBF0A3EAF0A3E9F029
:105C1300A3E0FBA3E0FAA3E0F91232E8900012F04C
:105C2300900001123301900013F0900004E0FBA3F5
:105C3300E0FAA3E0F91232E8FF7003025D0F90006F
:105C430007E0FBA3E0FAA3E0F9A3E0FDA3E09000E3
:105C530018CDF0A3EDF090000CE0FDA3E090001A46
:105C6300CDF0A3EDF090000EE0FDA3E090001CCD7D
:105C7300F0A3EDF0900010E0FDA3E090001ECDF046
:105C8300A3EDF0125318900004E0FBA3E0FAA3E0A5
:105C9300F91232E8FF3395E0FEEF24E0FFEE34FF24
:105CA300FE900012E0FD7C0012332EEF2404FFE48B
:105CB3003EFE900007E0FBA3E0FAA3E02FF9EA3EE3
:105CC300FA1232E8FF2402FDEC33FC900013E0FEED
:105CD300FBC3ED9B7480F86C985015EF2402FDE430
:105CE30033FC90000BE02DF090000AE03CF0800FB5
:105CF300EEFF90000BE02FF090000AE03400F090EC
:0C5D03000005E475F001123395025C2DE0
:015D0F002271
:10500800900570EEF0A3EFF0A3ECF0A3EDF0A3EAA7
:04501800F0A3EBF026
:10501C0090057C1236690000000090057BE064016D
:10502C0070507F011263CA900572E0FCA3E0FDA3EF
:10503C00E0FEA3E0FF900570E0FAA3E02FFFEA3E4C
:10504C00CF24FFFBEF34FFFA900576E0FEA3E0FFE0
:10505C00900572E0F8A3E02FFFE83ECF24FFCF3499
:10506C00FF90003AF0A3EFF0900570E0FEA3E0FF94
:10507C00805E90057BE0B403197F031263CA900035
:10508C003AE4F0A374F0F07B407A01E4FDFCFFFEFF
:10509C00803E90057BE0B4021A7F021263CA900036
:1050AC003A7401F0A37440F07BF07A00E4FDFCFF4D
:1050BC00FE801D90057BE0701AFF1263CA90003AC7
:1050CC007401F0A37440F07BF07A00E4FDFCFFFE69
:1050DC00126371900580123669000000009005760D
:1050EC00E0FCA3E0FD900574E0FEA3E0FF12332E7C
:1050FC00EF25E0FFEE33FE7C017DF4123340E4FC3F
:10510C00FD900580E0F8A3E0F9A3E0FAA3E0FBC36F
:10511C0012356E506E90057CA3E0FDA3E0FEA3E07B
:10512C00FF900578E0FBA3E0FAA3E02FF9EA3EFA42
:10513C00EB3DFB7DF47C0112666290057CE0FCA3E8
:10514C00E0FDA3E0FEA3E024F4FFEE3401FEE43D19
:10515C00FDE43CFC90057C12365D7F017E001265FF
:10516C00D1900580E0FCA3E0FDA3E0FEA3E02401C8
:10517C00FFE43EFEE43DFDE43CFC90058012365D10
:03518C000250E9E5
:01518F0022FD
:10575800900004EEF0A3EFF0A3ECF0A3EDF0A3EAC1
:04576800F0A3EBF0CF
:10576C0090000FE0FCA3E0FDEC900019F0A3EDF02D
:10577C00900011E0FCA3E0FDEC90001BF0A3EDF019
:10578C00900006E0FCA3E0FDA3E0FEA3E0FF900088
:10579C0004E0FAA3E02FFFEA3ECF24FFFBEF34FF37
:1057AC00FA90000AE0FEA3E0FF900006E0F8A3E008
:1057BC002FFFE83ECF24FFCF34FF90003AF0A3EF49
:1057CC00F090000412636CD291C295E4900013F037
:1057DC00A3F090000AE0FEA3E0FFC3900014E09F4A
:1057EC00900013E09E40030258A6E4900015F0A32D
:1057FC00F0900008E0FEA3E07803CEC313CE13D8DC
:10580C00F9FF900015E0FAA3E0FBC39FEA9E5079E4
:10581C00900013E0FCA3E0FD12332EEB2FFFEA3EC9
:10582C00FE90000CE0FBA3E0FAA3E0F98F828E83DC
:10583C00123301900018F0E4900017F0900017E07C
:10584C00FFC394085032C374079FFFA3E0FEA80760
:10585C00088002C313D8FC5401FF7B01B401067A03
:10586C0000791980047A00791B7D027C0012652274
:10587C00900017E004F080C4900016E004F070066D
:10588C00900015E004F00257FD900014E004F07055
:0C589C0006900013E004F00257DED295E5
:0158A80022DD
:10372800900248EEF0A3EFF0A3ECF0A3EDF0A3EACB
:04373800F0A3EBF01F
:10373C00900255123669000001F4900248E0FEA395
:10374C00E0FFE4FCFD9005A6E0F8A3E0F9A3E0FAA5
:10375C00A3E0FBD312356E5003023B2990024AE0E2
:10376C00FEA3E0FFE4FCFD9005AAE0F8A3E0F9A3BA
:10377C00E0FAA3E0FBD312356E5003023B29900212
:10378C004CE0FEA3E0FF900249E02FFF900248E0DE
:10379C003ECF24FFCF34FFFEE4FCFD9005A6E0F8FD
:1037AC00A3E0F9A3E0FAA3E0FBD312356E501F900F
:1037BC0005A6A3A3E0FEA3E0FF900248E0FCA3E073
:1037CC00FDC3EF9DFFEE9C90024CF0A3EFF0900236
:1037DC004EE0FEA3E0FF90024BE02FFF90024AE088
:1037EC003ECF24FFCF34FFFEE4FCFD9005AAE0F8A9
:1037FC00A3E0F9A3E0FAA3E0FBD312356E501F90BF
:10380C0005AAA3A3E0FEA3E0FF90024AE0FCA3E01C
:10381C00FDC3EF9DFFEE9C90024EF0A3EFF09002E3
:10382C004AE0FCA3E0FDA3E0FEA3E0FF900248E029
:10383C00FAA3E02FFFEA3ECF24FFFBEF34FFFA9010
:10384C00024EE0FEA3E0FF90024AE0F8A3E02FFF57
:10385C00E83ECF24FFCF34FF90003AF0A3EFF09076
:10386C00024812636CD291C295900254E025E0FF9D
:10387C00900253E033FEE4FCFD90025912365D9049
:10388C000255E0F8A3E0F9A3E0FAA3E0FBA3E0FC07
:10389C00A3E0FDA3E0FEA3E0FF1234CE90025D1284
:1038AC00365D900255E0F8A3E0F9A3E0FAA3E0FB43
:1038BC00A3E0FCA3E0FDA3E0FEA3E0FF1234CEAC3A
:1038CC0000AD01AE02AF0390026112365D9002654D
:1038DC001236690000000090025DE0FCA3E0FDA33D
:1038EC00E0FEA3E0FF900265E0F8A3E0F9A3E0FAA4
:1038FC00A3E0FBC312356E4003023A20900269121A
:10390C00366900000000E47FFAFEFDFC900269E0DD
:10391C00F8A3E0F9A3E0FAA3E0FBC312356E400371
:10392C000239E9E47FFAFEFDFC900265E0F8A3E0C1
:10393C00F9A3E0FAA3E0FB123443900269E0F8A388
:10394C00E0F9A3E0FAA3E02FFFEA3EFEE93DFDE833
:10395C003CFCE47B02FAF9F8123443AD07AC069058
:10396C000250E0FBA3E0FAA3E0F98D828C831233C2
:10397C00ECE5F0FF900269A3A3E0FAA3E0A375F0D5
:10398C000212369AEA25E02583F583EFF090025077
:10399C00E0FBA3E0FAA3E0F98D828C831233ECFFF9
:1039AC00900269A3A3E0FAA3E090026E75F00212F4
:1039BC00369AEA25E02583F583EFF0900269E0FC66
:1039CC00A3E0FDA3E0FEA3E02401FFE43EFEE43D02
:1039DC00FDE43CFC90026912365D0239127B017ADF
:1039EC0002796D900255A3A3E0FEA3E0FDAC061294
:1039FC006522900265E0FCA3E0FDA3E0FEA3E024B9
:103A0C0001FFE43EFEE43DFDE43CFC900265123611
:103A1C005D0238E390026912366900000000E47B15
:103A2C0002FAF9F8900261E0FCA3E0FDA3E0FEA32A
:103A3C00E0FF1234CE900269E0F8A3E0F9A3E0FABB
:103A4C00A3E0FBC312356E4003023B12E47FFAFE87
:103A5C00FDFC90025DE0F8A3E0F9A3E0FAA3E0FB23
:103A6C00123443900269E0F8A3E0F9A3E0FAA3E072
:103A7C002FFFEA3EFEE93DFDE83CFCE47B02FAF94F
:103A8C00F8123443AD07AC06900250E0FBA3E0FA09
:103A9C00A3E0F98D828C831233ECE5F0FF90026980
:103AAC00A3A3E0FAA3E0A375F00212369AEA25E08C
:103ABC002583F583EFF0900250E0FBA3E0FAA3E03E
:103ACC00F98D828C831233ECFF900269A3A3E0FA88
:103ADC00A3E090026E75F00212369AEA25E0258377
:103AEC00F583EFF0900269E0FCA3E0FDA3E0FEA3F8
:103AFC00E02401FFE43EFEE43DFDE43CFC90026961
:103B0C0012365D023A2A7B017A02796D900261A32A
:0D3B1C00A3E0FEA3E0FDAC06126522D295E9
:013B29002279
:0E668B008FF5E5F430E7FBE4F59153F47F2240
:0F666C008FF5E5F430E7FBAFF5E4F59153F47FDC
:01667B0022FC
:10652200900243EBF0A3EAF0A3E9F0A3ECF0A3EDB1
:01653200F078
:10653300E4FFFED3900247E09F900246E09E402690
:10654300900243E0FBA3E0FAA3E0F98F828E83126B
:106553003301F5F5E5F430E7FBE4F59153F47F0FF0
:06656300BF00010E80CD17
:01656900220F
:0B1A2800900034EBF0A3EAF0A3E9F01B
:101A3300E490003DF0A3F0900037E0FBA3E0FAA3AD
:101A4300E0F990001412362DC000C001C002C0039B
:101A5300900037E0FBA3E0FAA3E0F990000412350D
:101A63009FD003D002D001D000C3EF9BFFEE9AFEBC
:101A7300ED99FDEC98FCC004C005C006C0079000BA
:101A830037E0FBA3E0FAA3E0F990001012362DC073
:101A930000C001C002C003900037E0FBA3E0FAA33B
:101AA300E0F990000812359FD003D002D001D00096
:101AB300C3EF9BFFEE9AFEED99FDEC98FCD003D0AB
:101AC30002D001D000123443C004C005C006C007D1
:101AD300900037E0FBA3E0FAA3E0F990001412367C
:101AE3002DC000C001C002C003900037E0FBA3E09B
:101AF300FAA3E0F990000C12359FD003D002D00175
:101B0300D000C3EF9BFFEE9AFEED99FDEC98FCC06D
:101B130004C005C006C007900037E0FBA3E0FAA3AA
:101B2300E0F990001012362DC000C001C002C003BE
:101B3300900037E0FBA3E0FAA3E0F912357FD0036E
:101B4300D002D001D000C3EF9BFBEE9AFAED99F9D6
:101B5300EC98F8D007D006D005D004123443D00354
:101B6300D002D001D000C3EF9BFFEE9AFEED99FDAA
:101B7300EC98FC90003AE0FBA3E0FAA3E0F99000B4
:101B8300181235E990001812359FE4FBFAF9F8C3EF
:101B930012356E700B74FF90003DF0A3F002243EEB
:101BA300900037E0FBA3E0FAA3E0F99000141236AB
:101BB3002DC000C001C002C003900037E0FBA3E0CA
:101BC300FAA3E0F990000412359FD003D002D001AC
:101BD300D000C3EF9BFFEE9AFEED99FDEC98FCC09D
:101BE30004C005C006C007900034E0FBA3E0FAA3DD
:101BF300E0F990001012362DC000C001C002C003EE
:101C0300900034E0FBA3E0FAA3E0F990000812355A
:101C13009FD003D002D001D000C3EF9BFFEE9AFE0A
:101C2300ED99FDEC98FCD003D002D001D000123422
:101C330043C004C005C006C007900037E0FBA3E023
:101C4300FAA3E0F990001412362DC000C001C002BF
:101C5300C003900037E0FBA3E0FAA3E0F990000C87
:101C630012359FD003D002D001D000C3EF9BFFEE0B
:101C73009AFEED99FDEC98FCC004C005C006C007B0
:101C8300900034E0FBA3E0FAA3E0F99000101236D1
:101C93002DC000C001C002C003900034E0FBA3E0EC
:101CA300FAA3E0F912357FD003D002D001D000C3EC
:101CB300EF9BFBEE9AFAED99F9EC98F8D007D00672
:101CC300D005D004123443D003D002D001D000C3D6
:101CD300EF9BFFEE9AFEED99FDEC98FC90003AE045
:101CE300FBA3E0FAA3E0F91235CF900037E0FBA3A2
:101CF300E0FAA3E0F990001012362DC000C001C035
:101D030002C003900037E0FBA3E0FAA3E0F99000E0
:101D13000812359FD003D002D001D000C3EF9BFF40
:101D2300EE9AFEED99FDEC98FCC004C005C006C018
:101D330007900034E0FBA3E0FAA3E0F9900010124F
:101D4300362DC000C001C002C003900034E0FBA3E5
:101D5300E0FAA3E0F912357FD003D002D001D0001E
:101D6300C3EF9BFFEE9AFEED99FDEC98FCD003D0F8
:101D730002D001D000123443C004C005C006C0071E
:101D8300900034E0FBA3E0FAA3E0F99000101236D0
:101D93002DC000C001C002C003900034E0FBA3E0EB
:101DA300FAA3E0F990000812359FD003D002D001C6
:101DB300D000C3EF9BFFEE9AFEED99FDEC98FCC0BB
:101DC30004C005C006C007900037E0FBA3E0FAA3F8
:101DD300E0F990001012362DC000C001C002C0030C
:101DE300900037E0FBA3E0FAA3E0F912357FD003BC
:101DF300D002D001D000C3EF9BFBEE9AFAED99F924
:101E0300EC98F8D007D006D005D004123443D003A1
:101E1300D002D001D000C3EF9BFFEE9AFEED99FDF7
:101E2300EC98FC90003AE0FBA3E0FAA3E0F9900001
:101E3300041235E9900034E0FBA3E0FAA3E0F99043
:101E4300001012359F900037E0FBA3E0FAA3E0F9FE
:101E530090000812362D123443C004C005C006C0DA
:101E630007900034E0FBA3E0FAA3E0F99000081226
:101E7300359F900037E0FBA3E0FAA3E0F990001050
:101E830012362D123443D003D002D001D000C3EF59
:101E93009BFFEE9AFEED99FDEC98FC900037E0FB7A
:101EA300A3E0FAA3E0F990000412362D123443C0E4
:101EB30004C005C006C007900037E0FBA3E0FAA307
:101EC300E0F990001012359F900034E0FBA3E0FA94
:101ED300A3E0F912360D123443C004C005C006C096
:101EE30007900034E0FBA3E0FAA3E0F9900010129E
:101EF300359F900037E0FBA3E0FAA3E0F912360D1B
:101F0300123443D003D002D001D000C3EF9BFFEEC5
:101F13009AFEED99FDEC98FC900037E0FBA3E0FA04
:101F2300A3E0F990000C12362D123443D003D002F3
:101F3300D001D000EB2FFFEA3EFEE93DFDE83CFC7B
:101F4300C004C005C006C007900034E0FBA3E0FA5C
:101F5300A3E0F990000812359F900037E0FBA3E05F
:101F6300FAA3E0F912360D123443C004C005C006CB
:101F7300C007900037E0FBA3E0FAA3E0F990000864
:101F830012359F900034E0FBA3E0FAA3E0F9123688
:101F93000D123443D003D002D001D000C3EF9BFF16
:101FA300EE9AFEED99FDEC98FC900037E0FBA3E080
:101FB300FAA3E0F990001412362D123443D003D063
:101FC30002D001D000EF2BFFEE3AFEED39FDEC38E5
:101FD300FC90003AE0FBA3E0FAA3E0F990000812BA
:101FE30035E9900037E0FBA3E0FAA3E0F990001491
:101FF30012362DC000C001C002C003900037E0FBC1
:10200300A3E0FAA3E0F990000412359FD003D002B5
:10201300D001D000C3EF9BFFEE9AFEED99FDEC9843
:10202300FCC004C005C006C007900034E0FBA3E079
:10203300FAA3E0F990001412362DC000C001C002CB
:10204300C003900034E0FBA3E0FAA3E0F990000C96
:1020530012359FD003D002D001D000C3EF9BFFEE17
:102063009AFEED99FDEC98FCD003D002D001D0008C
:10207300123443C004C005C006C007900037E0FB1C
:10208300A3E0FAA3E0F990001412362DC000C001BA
:10209300C002C003900037E0FBA3E0FAA3E0F9908D
:1020A300000C12359FD003D002D001D000C3EF9BA8
:1020B300FFEE9AFEED99FDEC98FCC004C005C00646
:1020C300C007900034E0FBA3E0FAA3E0F99000140A
:1020D30012362DC000C001C002C003900034E0FBE3
:1020E300A3E0FAA3E0F990000412359FD003D002D5
:1020F300D001D000C3EF9BFBEE9AFAED99F9EC986F
:10210300F8D007D006D005D004123443D003D00250
:10211300D001D000C3EF9BFFEE9AFEED99FDEC9842
:10212300FC90003AE0FBA3E0FAA3E0F990000C1264
:1021330035E9900037E0FBA3E0FAA3E0F990001043
:1021430012362DC000C001C002C003900037E0FB6F
:10215300A3E0FAA3E0F990000812359FD003D00260
:10216300D001D000C3EF9BFFEE9AFEED99FDEC98F2
:10217300FCC004C005C006C007900034E0FBA3E028
:10218300FAA3E0F990001412362DC000C001C0027A
:10219300C003900034E0FBA3E0FAA3E0F99000044D
:1021A30012359FD003D002D001D000C3EF9BFFEEC6
:1021B3009AFEED99FDEC98FCD003D002D001D0003B
:1021C300123443C004C005C006C007900034E0FBCE
:1021D300A3E0FAA3E0F990001412362DC000C00169
:1021E300C002C003900034E0FBA3E0FAA3E0F9903F
:1021F300000C12359FD003D002D001D000C3EF9B57
:10220300FFEE9AFEED99FDEC98FCC004C005C006F4
:10221300C007900037E0FBA3E0FAA3E0F9900010B9
:1022230012362DC000C001C002C003900037E0FB8E
:10223300A3E0FAA3E0F912357FD003D002D001D096
:1022430000C3EF9BFBEE9AFAED99F9EC98F8D007EF
:10225300D006D005D004123443D003D002D001D02D
:1022630000C3EF9BFFEE9AFEED99FDEC98FC900006
:102273003AE0FBA3E0FAA3E0F99000101235E990ED
:102283000034E0FBA3E0FAA3E0F990001412359FB9
:10229300900037E0FBA3E0FAA3E0F99000081236C0
:1022A3002D123443C004C005C006C007900034E0BB
:1022B300FBA3E0FAA3E0F990000C12359F900037DE
:1022C300E0FBA3E0FAA3E0F990001012362D1234DC
:1022D30043D003D002D001D000C3EF9BFFEE9AFEA0
:1022E300ED99FDEC98FC900037E0FBA3E0FAA3E046
:1022F300F990000412362D123443C004C005C00601
:10230300C007900034E0FBA3E0FAA3E0F9900004D7
:1023130012359F900037E0FBA3E0FAA3E0F99000A9
:102323001012362D123443C004C005C006C00790F6
:102333000034E0FBA3E0FAA3E0F990001412359F08
:10234300900037E0FBA3E0FAA3E0F912360D123454
:1023530043D003D002D001D000C3EF9BFFEE9AFE1F
:10236300ED99FDEC98FC900037E0FBA3E0FAA3E0C5
:10237300F990000C12362D123443D003D002D00151
:10238300D000EB2FFFEA3EFEE93DFDE83CFCC00434
:10239300C005C006C007900034E0FBA3E0FAA3E049
:1023A300F990000412359F900037E0FBA3E0FAA3F5
:1023B300E0F990000812362D123443C004C005C062
:1023C30006C007900034E0FBA3E0FAA3E0F9900015
:1023D3000C12359F900037E0FBA3E0FAA3E0F9125B
:1023E300360D123443A804A905AA06AB07D007D0BB
:1023F30006D005D004C3EF9BFFEE9AFEED99FDECEA
:1024030098FC900037E0FBA3E0FAA3E0F9900014F6
:1024130012362D123443D003D002D001D000EF2B5B
:10242300FFEE3AFEED39FDEC38FC90003AE0FBA3F9
:10243300E0FAA3E0F99000141235E990003DE0FEC4
:03244300A3E0FF14
:012446002273
:0B51900090001EEBF0A3EAF0A3E9F092
:10519B00E4900027F0A3F0900024E0FBA3E0FAA337
:1051AB00E0F990001812359FE4FBFAF9F8C31235B9
:1051BB006E7003025307900021E0FBA3E0FAA3E01B
:1051CB00F990000412359F900024E0FBA3E0FAA3B2
:1051DB00E0F990000412362D123443C004C005C010
:1051EB0006C007900021E0FBA3E0FAA3E0F912351B
:1051FB007F900024E0FBA3E0FAA3E0F912360D1236
:10520B003443D003D002D001D000EF2BFFEE3AFE97
:10521B00ED39FDEC38FC900024E0FBA3E0FAA3E0B1
:10522B00F990000812362DEF2BFFEE3AFEED39FD0B
:10523B00EC38FC900024E0FBA3E0FAA3E0F990002B
:10524B001812362D1234CE90001EE0FBA3E0FAA309
:10525B00E0F91235CF900021E0FBA3E0FAA3E0F9CF
:10526B0090000412359F900024E0FBA3E0FAA3E02A
:10527B00F990001012362D123443C004C005C0063D
:10528B00C007900024E0FBA3E0FAA3E0F990000C28
:10529B0012359F900021E0FBA3E0FAA3E0F9123650
:1052AB000D123443D003D002D001D000EF2BFFEE10
:1052BB003AFEED39FDEC38FC900024E0FBA3E0FA5C
:1052CB00A3E0F990001412362DEF2BFFEE3AFEED12
:1052DB0039FDEC38FC900024E0FBA3E0FAA3E0F9E5
:1052EB0090001812362D1234CE90001EE0FBA3E076
:1052FB00FAA3E0F99000041235E9800874FF9000DE
:0C530B0027F0A3F0900027E0FEA3E0FFD5
:015317002273
:106629000000002800000028000000C80000002821
:08663900000000C80000011878
:1065EF00EF1FAA0670011E4A6013E4FCFDC3ED9471
:0D65FF00E8EC940350EA0DBD00010C80F0A3
:01660C00226B
:0866D300C29612668BD29622DA
:0666B900EFF0A3E4F0FF86
:0366BF0002666C04
:0B42A80090001EEBF0A3EAF0A3E9F089
:1042B3001266C2EF7002FF22C296E4900052F07FB2
:1042C300D01266D3E4FF1266BF9000261266B9903F
:1042D3000026E0F0A3E04FF0900026E0FEA3E07894
:1042E30003CEC313CE13D8F9F0EE900026F07F90DF
:1042F3001266D3E4FF1266BF9000281266B99000DD
:1043030028E0F0A3E04FF0900028E0FEA3E078035C
:10431300CEC313CE13D8F9FF900028EEF0A3EFF02D
:10432300900026E0FCA3E0FD900052E0FB25E02492
:104333002AF582E43400F583ECF0A3EDF0EB25E0FD
:10434300243EF582E43400F583EEF0A3EFF0900011
:1043530052E004F01266C2BF010C900052E0C39415
:104363000A50030242C2D296900052E0640A6003EC
:104373007F00227F01E4FE900052E014FDEEC39D16
:104383004003024408EE25E0242CF582E43400F5D2
:1043930083E0FCA3E0FDEE25E0242AF582E434006B
:1043A300F583E0FAA3E0D39DEA9C4055EE25E02493
:1043B3002CF582E43400F583E0FDA3E0900024CDE6
:1043C300F0A3EDF0EE25E0242AF582E43400F58332
:1043D300E0FCA3E0FDEE25E0242CF582E43400F5B7
:1043E30083ECF0A3EDF0900024E0FCA3E0FDEE25C8
:1043F300E0242AF582E43400F583ECF0A3EDF0E445
:10440300FF0E02437AEF70030243767F01E4FE90CE
:104413000052E014FDEEC39D40030244A0EE25E0EC
:104423002440F582E43400F583E0FCA3E0FDEE25AF
:10443300E0243EF582E43400F583E0FAA3E0D39D63
:10444300EA9C4055EE25E02440F582E43400F583F0
:10445300E0FDA3E0900024CDF0A3EDF0EE25E024F1
:104463003EF582E43400F583E0FCA3E0FDEE25E0B5
:104473002440F582E43400F583ECF0A3EDF09000E2
:1044830024E0FCA3E0FDEE25E0243EF582E43400C5
:10449300F583ECF0A3EDF0E4FF0E024412EF70039A
:1044A30002440E900034E0FEA3E0FF900033E02FBF
:1044B300FF900032E03EC313F9EF13FF90001EE0BC
:1044C300FBA3E0FAA3E0C98FF0123424900048E084
:1044D300FEA3E0FF900047E02FFF900046E03EC3BD
:1044E30013F9EF13FF900021E0FBA3E0FAA3E0C967
:0744F3008FF01234247F0159
:0144FA00229F
:0966C2002097037F01227F0022D2
:0B58A900900004EBF0A3EAF0A3E9F08C
:1058B4009000217401F0A37400F0A3741CF07B0128
:1058C4007A00791A1242A8EF7002FF2290001AE0BF
:1058D400FEA3E0FFE4FCFD90000A12365D90001C7C
:1058E400E0FEA3E0FFE4FCFD90000E12365D9000A4
:1058F400217401F0A37400F0A3740AF0A37401F0FE
:10590400A37404F0A374FAF07B017A0079121251A3
:1059140090E47FEFFEFDFC900012E0F8A3E0F9A311
:10592400E0FAA3E0FBD312356E400A90001212365F
:1059340069000000EFE47F3F7E01FDFC900016E06B
:10594400F8A3E0F9A3E0FAA3E0FBD312356E400A12
:105954009000161236690000013FE4FFFEFDFC9042
:105964000012E0F8A3E0F9A3E0FAA3E0FBC31235C8
:105974006E500A90001212366900000000E4FFFE27
:10598400FDFC900016E0F8A3E0F9A3E0FAA3E0FB25
:10599400C312356E500A90001612366900000000DA
:1059A400900012A3A3E0F9A3E0FF900004E0FBA39E
